{"abi":[{"type":"constructor","inputs":[{"name":"_stakingToken","type":"address","internalType":"address"},{"name":"_rewardToken","type":"address","internalType":"address"},{"name":"_rewardRate","type":"uint256","internalType":"uint256"}],"stateMutability":"nonpayable"},{"type":"function","name":"balanceOf","inputs":[{"name":"","type":"address","internalType":"address"}],"outputs":[{"name":"","type":"uint256","internalType":"uint256"}],"stateMutability":"view"},{"type":"function","name":"getAvalibleReward","inputs":[{"name":"_user","type":"address","internalType":"address"}],"outputs":[{"name":"","type":"uint256","internalType":"uint256"}],"stateMutability":"view"},{"type":"function","name":"getBalanceOfUser","inputs":[{"name":"_user","type":"address","internalType":"address"}],"outputs":[{"name":"","type":"uint256","internalType":"uint256"}],"stateMutability":"view"},{"type":"function","name":"getReward","inputs":[],"outputs":[],"stateMutability":"nonpayable"},{"type":"function","name":"owner","inputs":[],"outputs":[{"name":"","type":"address","internalType":"address"}],"stateMutability":"view"},{"type":"function","name":"rewardRate","inputs":[],"outputs":[{"name":"","type":"uint256","internalType":"uint256"}],"stateMutability":"view"},{"type":"function","name":"rewardToken","inputs":[],"outputs":[{"name":"","type":"address","internalType":"contract IERC20"}],"stateMutability":"view"},{"type":"function","name":"rewards","inputs":[{"name":"","type":"address","internalType":"address"}],"outputs":[{"name":"","type":"uint256","internalType":"uint256"}],"stateMutability":"view"},{"type":"function","name":"stake","inputs":[{"name":"_amount","type":"uint256","internalType":"uint256"}],"outputs":[],"stateMutability":"nonpayable"},{"type":"function","name":"stakingToken","inputs":[],"outputs":[{"name":"","type":"address","internalType":"contract IERC20"}],"stateMutability":"view"},{"type":"function","name":"totalSupply","inputs":[],"outputs":[{"name":"","type":"uint256","internalType":"uint256"}],"stateMutability":"view"},{"type":"function","name":"updateRewardRate","inputs":[{"name":"_newRewardRate","type":"uint256","internalType":"uint256"}],"outputs":[],"stateMutability":"nonpayable"},{"type":"function","name":"withdraw","inputs":[{"name":"_amount","type":"uint256","internalType":"uint256"}],"outputs":[],"stateMutability":"nonpayable"},{"type":"error","name":"ReentrancyGuardReentrantCall","inputs":[]},{"type":"error","name":"SimpleStaking__NeedsMoreThanZero","inputs":[]}],"bytecode":{"object":"0x60c060405234801561000f575f5ffd5b506040516114a93803806114a983398181016040528101906100319190610187565b60015f819055503360015f6101000a81548173ffffffffffffffffffffffffffffffffffffffff021916908373ffffffffffffffffffffffffffffffffffffffff160217905550806002819055508273ffffffffffffffffffffffffffffffffffffffff1660808173ffffffffffffffffffffffffffffffffffffffff16815250508173ffffffffffffffffffffffffffffffffffffffff1660a08173ffffffffffffffffffffffffffffffffffffffff1681525050426004819055505050506101d7565b5f5ffd5b5f73ffffffffffffffffffffffffffffffffffffffff82169050919050565b5f610123826100fa565b9050919050565b61013381610119565b811461013d575f5ffd5b50565b5f8151905061014e8161012a565b92915050565b5f819050919050565b61016681610154565b8114610170575f5ffd5b50565b5f815190506101818161015d565b92915050565b5f5f5f6060848603121561019e5761019d6100f6565b5b5f6101ab86828701610140565b93505060206101bc86828701610140565b92505060406101cd86828701610173565b9150509250925092565b60805160a05161129c61020d5f395f81816106f00152610b5201525f81816104a7015281816107f40152610a61015261129c5ff3fe608060405234801561000f575f5ffd5b50600436106100cd575f3560e01c806372f702f31161008a5780639ef3a261116100645780639ef3a261146101ff578063a694fc3a1461021b578063f53bbe9114610237578063f7c618c114610267576100cd565b806372f702f3146101a55780637b0a47ee146101c35780638da5cb5b146101e1576100cd565b80630700037d146100d157806318160ddd146101015780632e1a7d4d1461011f5780633d18b9121461013b57806345909a6f1461014557806370a0823114610175575b5f5ffd5b6100eb60048036038101906100e69190610d7c565b610285565b6040516100f89190610dbf565b60405180910390f35b61010961029a565b6040516101169190610dbf565b60405180910390f35b61013960048036038101906101349190610e02565b6102a0565b005b610143610583565b005b61015f600480360381019061015a9190610d7c565b610797565b60405161016c9190610dbf565b60405180910390f35b61018f600480360381019061018a9190610d7c565b6107dd565b60405161019c9190610dbf565b60405180910390f35b6101ad6107f2565b6040516101ba9190610e88565b60405180910390f35b6101cb610816565b6040516101d89190610dbf565b60405180910390f35b6101e961081c565b6040516101f69190610eb0565b60405180910390f35b61021960048036038101906102149190610e02565b610841565b005b61023560048036038101906102309190610e02565b6108da565b005b610251600480360381019061024c9190610d7c565b610b3f565b60405161025e9190610dbf565b60405180910390f35b61026f610b50565b60405161027c9190610e88565b60405180910390f35b6007602052805f5260405f205f915090505481565b60035481565b336102a9610b74565b600581905550426004819055505f73ffffffffffffffffffffffffffffffffffffffff168173ffffffffffffffffffffffffffffffffffffffff1614610378576102f281610bd6565b60075f8373ffffffffffffffffffffffffffffffffffffffff1673ffffffffffffffffffffffffffffffffffffffff1681526020019081526020015f208190555060055460085f8373ffffffffffffffffffffffffffffffffffffffff1673ffffffffffffffffffffffffffffffffffffffff1681526020019081526020015f20819055505b5f82116103ba576040517f08c379a00000000000000000000000000000000000000000000000000000000081526004016103b190610f23565b60405180910390fd5b60065f3373ffffffffffffffffffffffffffffffffffffffff1673ffffffffffffffffffffffffffffffffffffffff1681526020019081526020015f205482111561043a576040517f08c379a000000000000000000000000000000000000000000000000000000000815260040161043190610f8b565b60405180910390fd5b8160065f3373ffffffffffffffffffffffffffffffffffffffff1673ffffffffffffffffffffffffffffffffffffffff1681526020019081526020015f205f8282546104869190610fd6565b925050819055508160035f82825461049e9190610fd6565b925050819055507f000000000000000000000000000000000000000000000000000000000000000073ffffffffffffffffffffffffffffffffffffffff1663a9059cbb33846040518363ffffffff1660e01b8152600401610500929190611009565b6020604051808303815f875af115801561051c573d5f5f3e3d5ffd5b505050506040513d601f19601f820116820180604052508101906105409190611065565b61057f576040517f08c379a0000000000000000000000000000000000000000000000000000000008152600401610576906110da565b60405180910390fd5b5050565b3361058c610b74565b600581905550426004819055505f73ffffffffffffffffffffffffffffffffffffffff168173ffffffffffffffffffffffffffffffffffffffff161461065b576105d581610bd6565b60075f8373ffffffffffffffffffffffffffffffffffffffff1673ffffffffffffffffffffffffffffffffffffffff1681526020019081526020015f208190555060055460085f8373ffffffffffffffffffffffffffffffffffffffff1673ffffffffffffffffffffffffffffffffffffffff1681526020019081526020015f20819055505b610663610cd1565b5f60075f3373ffffffffffffffffffffffffffffffffffffffff1673ffffffffffffffffffffffffffffffffffffffff1681526020019081526020015f205490505f81111561078b575f60075f3373ffffffffffffffffffffffffffffffffffffffff1673ffffffffffffffffffffffffffffffffffffffff1681526020019081526020015f20819055507f000000000000000000000000000000000000000000000000000000000000000073ffffffffffffffffffffffffffffffffffffffff1663a9059cbb33836040518363ffffffff1660e01b8152600401610749929190611009565b6020604051808303815f875af1158015610765573d5f5f3e3d5ffd5b505050506040513d601f19601f820116820180604052508101906107899190611065565b505b50610794610d15565b50565b5f60065f8373ffffffffffffffffffffffffffffffffffffffff1673ffffffffffffffffffffffffffffffffffffffff1681526020019081526020015f20549050919050565b6006602052805f5260405f205f915090505481565b7f000000000000000000000000000000000000000000000000000000000000000081565b60025481565b60015f9054906101000a900473ffffffffffffffffffffffffffffffffffffffff1681565b60015f9054906101000a900473ffffffffffffffffffffffffffffffffffffffff1673ffffffffffffffffffffffffffffffffffffffff163373ffffffffffffffffffffffffffffffffffffffff16146108d0576040517f08c379a00000000000000000000000000000000000000000000000000000000081526004016108c790611142565b60405180910390fd5b8060028190555050565b336108e3610b74565b600581905550426004819055505f73ffffffffffffffffffffffffffffffffffffffff168173ffffffffffffffffffffffffffffffffffffffff16146109b25761092c81610bd6565b60075f8373ffffffffffffffffffffffffffffffffffffffff1673ffffffffffffffffffffffffffffffffffffffff1681526020019081526020015f208190555060055460085f8373ffffffffffffffffffffffffffffffffffffffff1673ffffffffffffffffffffffffffffffffffffffff1681526020019081526020015f20819055505b5f82116109f4576040517f08c379a00000000000000000000000000000000000000000000000000000000081526004016109eb90610f23565b60405180910390fd5b8160065f3373ffffffffffffffffffffffffffffffffffffffff1673ffffffffffffffffffffffffffffffffffffffff1681526020019081526020015f205f828254610a409190611160565b925050819055508160035f828254610a589190611160565b925050819055507f000000000000000000000000000000000000000000000000000000000000000073ffffffffffffffffffffffffffffffffffffffff166323b872dd3330856040518463ffffffff1660e01b8152600401610abc93929190611193565b6020604051808303815f875af1158015610ad8573d5f5f3e3d5ffd5b505050506040513d601f19601f82011682018060405250810190610afc9190611065565b610b3b576040517f08c379a0000000000000000000000000000000000000000000000000000000008152600401610b32906110da565b60405180910390fd5b5050565b5f610b4982610bd6565b9050919050565b7f000000000000000000000000000000000000000000000000000000000000000081565b5f5f60035403610b88576005549050610bd3565b600354670de0b6b3a764000060045442610ba29190610fd6565b600254610baf91906111c8565b610bb991906111c8565b610bc39190611236565b600554610bd09190611160565b90505b90565b5f60075f8373ffffffffffffffffffffffffffffffffffffffff1673ffffffffffffffffffffffffffffffffffffffff1681526020019081526020015f2054670de0b6b3a764000060085f8573ffffffffffffffffffffffffffffffffffffffff1673ffffffffffffffffffffffffffffffffffffffff1681526020019081526020015f2054610c64610b74565b610c6e9190610fd6565b60065f8673ffffffffffffffffffffffffffffffffffffffff1673ffffffffffffffffffffffffffffffffffffffff1681526020019081526020015f2054610cb691906111c8565b610cc09190611236565b610cca9190611160565b9050919050565b60025f5403610d0c576040517f3ee5aeb500000000000000000000000000000000000000000000000000000000815260040160405180910390fd5b60025f81905550565b60015f81905550565b5f5ffd5b5f73ffffffffffffffffffffffffffffffffffffffff82169050919050565b5f610d4b82610d22565b9050919050565b610d5b81610d41565b8114610d65575f5ffd5b50565b5f81359050610d7681610d52565b92915050565b5f60208284031215610d9157610d90610d1e565b5b5f610d9e84828501610d68565b91505092915050565b5f819050919050565b610db981610da7565b82525050565b5f602082019050610dd25f830184610db0565b92915050565b610de181610da7565b8114610deb575f5ffd5b50565b5f81359050610dfc81610dd8565b92915050565b5f60208284031215610e1757610e16610d1e565b5b5f610e2484828501610dee565b91505092915050565b5f819050919050565b5f610e50610e4b610e4684610d22565b610e2d565b610d22565b9050919050565b5f610e6182610e36565b9050919050565b5f610e7282610e57565b9050919050565b610e8281610e68565b82525050565b5f602082019050610e9b5f830184610e79565b92915050565b610eaa81610d41565b82525050565b5f602082019050610ec35f830184610ea1565b92915050565b5f82825260208201905092915050565b7f616d6f756e74206d7573742062652067726561746572207468616e20300000005f82015250565b5f610f0d601d83610ec9565b9150610f1882610ed9565b602082019050919050565b5f6020820190508181035f830152610f3a81610f01565b9050919050565b7f6e6f7420656e6f7567682062616c616e636500000000000000000000000000005f82015250565b5f610f75601283610ec9565b9150610f8082610f41565b602082019050919050565b5f6020820190508181035f830152610fa281610f69565b9050919050565b7f4e487b71000000000000000000000000000000000000000000000000000000005f52601160045260245ffd5b5f610fe082610da7565b9150610feb83610da7565b925082820390508181111561100357611002610fa9565b5b92915050565b5f60408201905061101c5f830185610ea1565b6110296020830184610db0565b9392505050565b5f8115159050919050565b61104481611030565b811461104e575f5ffd5b50565b5f8151905061105f8161103b565b92915050565b5f6020828403121561107a57611079610d1e565b5b5f61108784828501611051565b91505092915050565b7f7472616e73666572206661696c656400000000000000000000000000000000005f82015250565b5f6110c4600f83610ec9565b91506110cf82611090565b602082019050919050565b5f6020820190508181035f8301526110f1816110b8565b9050919050565b7f6e6f7420617574686f72697a65640000000000000000000000000000000000005f82015250565b5f61112c600e83610ec9565b9150611137826110f8565b602082019050919050565b5f6020820190508181035f83015261115981611120565b9050919050565b5f61116a82610da7565b915061117583610da7565b925082820190508082111561118d5761118c610fa9565b5b92915050565b5f6060820190506111a65f830186610ea1565b6111b36020830185610ea1565b6111c06040830184610db0565b949350505050565b5f6111d282610da7565b91506111dd83610da7565b92508282026111eb81610da7565b9150828204841483151761120257611201610fa9565b5b5092915050565b7f4e487b71000000000000000000000000000000000000000000000000000000005f52601260045260245ffd5b5f61124082610da7565b915061124b83610da7565b92508261125b5761125a611209565b5b82820490509291505056fea26469706673582212200f1e8c306aa16cf051c7b41c771d70ecb135b159e92e94c209c285ae9d63becf64736f6c634300081c0033","linkReferences":{}},"methodIdentifiers":{"balanceOf(address)":"70a08231","getAvalibleReward(address)":"f53bbe91","getBalanceOfUser(address)":"45909a6f","getReward()":"3d18b912","owner()":"8da5cb5b","rewardRate()":"7b0a47ee","rewardToken()":"f7c618c1","rewards(address)":"0700037d","stake(uint256)":"a694fc3a","stakingToken()":"72f702f3","totalSupply()":"18160ddd","updateRewardRate(uint256)":"9ef3a261","withdraw(uint256)":"2e1a7d4d"},"id":27}