{"abi":[{"type":"constructor","inputs":[{"name":"_initialSupply","type":"uint256","internalType":"uint256"}],"stateMutability":"nonpayable"},{"type":"function","name":"allowance","inputs":[{"name":"owner","type":"address","internalType":"address"},{"name":"spender","type":"address","internalType":"address"}],"outputs":[{"name":"","type":"uint256","internalType":"uint256"}],"stateMutability":"view"},{"type":"function","name":"approve","inputs":[{"name":"spender","type":"address","internalType":"address"},{"name":"value","type":"uint256","internalType":"uint256"}],"outputs":[{"name":"","type":"bool","internalType":"bool"}],"stateMutability":"nonpayable"},{"type":"function","name":"balanceOf","inputs":[{"name":"account","type":"address","internalType":"address"}],"outputs":[{"name":"","type":"uint256","internalType":"uint256"}],"stateMutability":"view"},{"type":"function","name":"decimals","inputs":[],"outputs":[{"name":"","type":"uint8","internalType":"uint8"}],"stateMutability":"view"},{"type":"function","name":"initialSupply","inputs":[],"outputs":[{"name":"","type":"uint256","internalType":"uint256"}],"stateMutability":"view"},{"type":"function","name":"mint","inputs":[{"name":"_to","type":"address","internalType":"address"},{"name":"_amount","type":"uint256","internalType":"uint256"}],"outputs":[],"stateMutability":"nonpayable"},{"type":"function","name":"name","inputs":[],"outputs":[{"name":"","type":"string","internalType":"string"}],"stateMutability":"view"},{"type":"function","name":"owner","inputs":[],"outputs":[{"name":"","type":"address","internalType":"address"}],"stateMutability":"view"},{"type":"function","name":"symbol","inputs":[],"outputs":[{"name":"","type":"string","internalType":"string"}],"stateMutability":"view"},{"type":"function","name":"totalSupply","inputs":[],"outputs":[{"name":"","type":"uint256","internalType":"uint256"}],"stateMutability":"view"},{"type":"function","name":"transfer","inputs":[{"name":"to","type":"address","internalType":"address"},{"name":"value","type":"uint256","internalType":"uint256"}],"outputs":[{"name":"","type":"bool","internalType":"bool"}],"stateMutability":"nonpayable"},{"type":"function","name":"transferFrom","inputs":[{"name":"from","type":"address","internalType":"address"},{"name":"to","type":"address","internalType":"address"},{"name":"value","type":"uint256","internalType":"uint256"}],"outputs":[{"name":"","type":"bool","internalType":"bool"}],"stateMutability":"nonpayable"},{"type":"event","name":"Approval","inputs":[{"name":"owner","type":"address","indexed":true,"internalType":"address"},{"name":"spender","type":"address","indexed":true,"internalType":"address"},{"name":"value","type":"uint256","indexed":false,"internalType":"uint256"}],"anonymous":false},{"type":"event","name":"Transfer","inputs":[{"name":"from","type":"address","indexed":true,"internalType":"address"},{"name":"to","type":"address","indexed":true,"internalType":"address"},{"name":"value","type":"uint256","indexed":false,"internalType":"uint256"}],"anonymous":false},{"type":"error","name":"ERC20InsufficientAllowance","inputs":[{"name":"spender","type":"address","internalType":"address"},{"name":"allowance","type":"uint256","internalType":"uint256"},{"name":"needed","type":"uint256","internalType":"uint256"}]},{"type":"error","name":"ERC20InsufficientBalance","inputs":[{"name":"sender","type":"address","internalType":"address"},{"name":"balance","type":"uint256","internalType":"uint256"},{"name":"needed","type":"uint256","internalType":"uint256"}]},{"type":"error","name":"ERC20InvalidApprover","inputs":[{"name":"approver","type":"address","internalType":"address"}]},{"type":"error","name":"ERC20InvalidReceiver","inputs":[{"name":"receiver","type":"address","internalType":"address"}]},{"type":"error","name":"ERC20InvalidSender","inputs":[{"name":"sender","type":"address","internalType":"address"}]},{"type":"error","name":"ERC20InvalidSpender","inputs":[{"name":"spender","type":"address","internalType":"address"}]}],"bytecode":{"object":"0x608060405234801561000f575f5ffd5b50604051611871380380611871833981810160405281019061003191906103f1565b6040518060400160405280600781526020017f64657655534443000000000000000000000000000000000000000000000000008152506040518060400160405280600581526020017f645553444300000000000000000000000000000000000000000000000000000081525081600390816100ac9190610650565b5080600490816100bc9190610650565b5050503360055f6101000a81548173ffffffffffffffffffffffffffffffffffffffff021916908373ffffffffffffffffffffffffffffffffffffffff16021790555080600681905550610116338261011c60201b60201c565b50610834565b5f73ffffffffffffffffffffffffffffffffffffffff168273ffffffffffffffffffffffffffffffffffffffff160361018c575f6040517fec442f05000000000000000000000000000000000000000000000000000000008152600401610183919061075e565b60405180910390fd5b61019d5f83836101a160201b60201c565b5050565b5f73ffffffffffffffffffffffffffffffffffffffff168373ffffffffffffffffffffffffffffffffffffffff16036101f1578060025f8282546101e591906107a4565b925050819055506102bf565b5f5f5f8573ffffffffffffffffffffffffffffffffffffffff1673ffffffffffffffffffffffffffffffffffffffff1681526020019081526020015f205490508181101561027a578381836040517fe450d38c000000000000000000000000000000000000000000000000000000008152600401610271939291906107e6565b60405180910390fd5b8181035f5f8673ffffffffffffffffffffffffffffffffffffffff1673ffffffffffffffffffffffffffffffffffffffff1681526020019081526020015f2081905550505b5f73ffffffffffffffffffffffffffffffffffffffff168273ffffffffffffffffffffffffffffffffffffffff1603610306578060025f8282540392505081905550610350565b805f5f8473ffffffffffffffffffffffffffffffffffffffff1673ffffffffffffffffffffffffffffffffffffffff1681526020019081526020015f205f82825401925050819055505b8173ffffffffffffffffffffffffffffffffffffffff168373ffffffffffffffffffffffffffffffffffffffff167fddf252ad1be2c89b69c2b068fc378daa952ba7f163c4a11628f55a4df523b3ef836040516103ad919061081b565b60405180910390a3505050565b5f5ffd5b5f819050919050565b6103d0816103be565b81146103da575f5ffd5b50565b5f815190506103eb816103c7565b92915050565b5f60208284031215610406576104056103ba565b5b5f610413848285016103dd565b91505092915050565b5f81519050919050565b7f4e487b71000000000000000000000000000000000000000000000000000000005f52604160045260245ffd5b7f4e487b71000000000000000000000000000000000000000000000000000000005f52602260045260245ffd5b5f600282049050600182168061049757607f821691505b6020821081036104aa576104a9610453565b5b50919050565b5f819050815f5260205f209050919050565b5f6020601f8301049050919050565b5f82821b905092915050565b5f6008830261050c7fffffffffffffffffffffffffffffffffffffffffffffffffffffffffffffffff826104d1565b61051686836104d1565b95508019841693508086168417925050509392505050565b5f819050919050565b5f61055161054c610547846103be565b61052e565b6103be565b9050919050565b5f819050919050565b61056a83610537565b61057e61057682610558565b8484546104dd565b825550505050565b5f5f905090565b610595610586565b6105a0818484610561565b505050565b5b818110156105c3576105b85f8261058d565b6001810190506105a6565b5050565b601f821115610608576105d9816104b0565b6105e2846104c2565b810160208510156105f1578190505b6106056105fd856104c2565b8301826105a5565b50505b505050565b5f82821c905092915050565b5f6106285f198460080261060d565b1980831691505092915050565b5f6106408383610619565b9150826002028217905092915050565b6106598261041c565b67ffffffffffffffff81111561067257610671610426565b5b61067c8254610480565b6106878282856105c7565b5f60209050601f8311600181146106b8575f84156106a6578287015190505b6106b08582610635565b865550610717565b601f1984166106c6866104b0565b5f5b828110156106ed578489015182556001820191506020850194506020810190506106c8565b8683101561070a5784890151610706601f891682610619565b8355505b6001600288020188555050505b505050505050565b5f73ffffffffffffffffffffffffffffffffffffffff82169050919050565b5f6107488261071f565b9050919050565b6107588161073e565b82525050565b5f6020820190506107715f83018461074f565b92915050565b7f4e487b71000000000000000000000000000000000000000000000000000000005f52601160045260245ffd5b5f6107ae826103be565b91506107b9836103be565b92508282019050808211156107d1576107d0610777565b5b92915050565b6107e0816103be565b82525050565b5f6060820190506107f95f83018661074f565b61080660208301856107d7565b61081360408301846107d7565b949350505050565b5f60208201905061082e5f8301846107d7565b92915050565b611030806108415f395ff3fe608060405234801561000f575f5ffd5b50600436106100b2575f3560e01c806340c10f191161006f57806340c10f191461018e57806370a08231146101aa5780638da5cb5b146101da57806395d89b41146101f8578063a9059cbb14610216578063dd62ed3e14610246576100b2565b806306fdde03146100b6578063095ea7b3146100d457806318160ddd1461010457806323b872dd14610122578063313ce56714610152578063378dc3dc14610170575b5f5ffd5b6100be610276565b6040516100cb9190610c1b565b60405180910390f35b6100ee60048036038101906100e99190610ccc565b610306565b6040516100fb9190610d24565b60405180910390f35b61010c610328565b6040516101199190610d4c565b60405180910390f35b61013c60048036038101906101379190610d65565b610331565b6040516101499190610d24565b60405180910390f35b61015a61035f565b6040516101679190610dd0565b60405180910390f35b610178610367565b6040516101859190610d4c565b60405180910390f35b6101a860048036038101906101a39190610ccc565b61036d565b005b6101c460048036038101906101bf9190610de9565b61040a565b6040516101d19190610d4c565b60405180910390f35b6101e261044f565b6040516101ef9190610e23565b60405180910390f35b610200610474565b60405161020d9190610c1b565b60405180910390f35b610230600480360381019061022b9190610ccc565b610504565b60405161023d9190610d24565b60405180910390f35b610260600480360381019061025b9190610e3c565b610526565b60405161026d9190610d4c565b60405180910390f35b60606003805461028590610ea7565b80601f01602080910402602001604051908101604052809291908181526020018280546102b190610ea7565b80156102fc5780601f106102d3576101008083540402835291602001916102fc565b820191905f5260205f20905b8154815290600101906020018083116102df57829003601f168201915b5050505050905090565b5f5f6103106105a8565b905061031d8185856105af565b600191505092915050565b5f600254905090565b5f5f61033b6105a8565b90506103488582856105c1565b610353858585610654565b60019150509392505050565b5f6012905090565b60065481565b60055f9054906101000a900473ffffffffffffffffffffffffffffffffffffffff1673ffffffffffffffffffffffffffffffffffffffff163373ffffffffffffffffffffffffffffffffffffffff16146103fc576040517f08c379a00000000000000000000000000000000000000000000000000000000081526004016103f390610f47565b60405180910390fd5b6104068282610744565b5050565b5f5f5f8373ffffffffffffffffffffffffffffffffffffffff1673ffffffffffffffffffffffffffffffffffffffff1681526020019081526020015f20549050919050565b60055f9054906101000a900473ffffffffffffffffffffffffffffffffffffffff1681565b60606004805461048390610ea7565b80601f01602080910402602001604051908101604052809291908181526020018280546104af90610ea7565b80156104fa5780601f106104d1576101008083540402835291602001916104fa565b820191905f5260205f20905b8154815290600101906020018083116104dd57829003601f168201915b5050505050905090565b5f5f61050e6105a8565b905061051b818585610654565b600191505092915050565b5f60015f8473ffffffffffffffffffffffffffffffffffffffff1673ffffffffffffffffffffffffffffffffffffffff1681526020019081526020015f205f8373ffffffffffffffffffffffffffffffffffffffff1673ffffffffffffffffffffffffffffffffffffffff1681526020019081526020015f2054905092915050565b5f33905090565b6105bc83838360016107c3565b505050565b5f6105cc8484610526565b90507fffffffffffffffffffffffffffffffffffffffffffffffffffffffffffffffff81101561064e578181101561063f578281836040517ffb8f41b200000000000000000000000000000000000000000000000000000000815260040161063693929190610f65565b60405180910390fd5b61064d84848484035f6107c3565b5b50505050565b5f73ffffffffffffffffffffffffffffffffffffffff168373ffffffffffffffffffffffffffffffffffffffff16036106c4575f6040517f96c6fd1e0000000000000000000000000000000000000000000000000000000081526004016106bb9190610e23565b60405180910390fd5b5f73ffffffffffffffffffffffffffffffffffffffff168273ffffffffffffffffffffffffffffffffffffffff1603610734575f6040517fec442f0500000000000000000000000000000000000000000000000000000000815260040161072b9190610e23565b60405180910390fd5b61073f838383610992565b505050565b5f73ffffffffffffffffffffffffffffffffffffffff168273ffffffffffffffffffffffffffffffffffffffff16036107b4575f6040517fec442f050000000000000000000000000000000000000000000000000000000081526004016107ab9190610e23565b60405180910390fd5b6107bf5f8383610992565b5050565b5f73ffffffffffffffffffffffffffffffffffffffff168473ffffffffffffffffffffffffffffffffffffffff1603610833575f6040517fe602df0500000000000000000000000000000000000000000000000000000000815260040161082a9190610e23565b60405180910390fd5b5f73ffffffffffffffffffffffffffffffffffffffff168373ffffffffffffffffffffffffffffffffffffffff16036108a3575f6040517f94280d6200000000000000000000000000000000000000000000000000000000815260040161089a9190610e23565b60405180910390fd5b8160015f8673ffffffffffffffffffffffffffffffffffffffff1673ffffffffffffffffffffffffffffffffffffffff1681526020019081526020015f205f8573ffffffffffffffffffffffffffffffffffffffff1673ffffffffffffffffffffffffffffffffffffffff1681526020019081526020015f2081905550801561098c578273ffffffffffffffffffffffffffffffffffffffff168473ffffffffffffffffffffffffffffffffffffffff167f8c5be1e5ebec7d5bd14f71427d1e84f3dd0314c0f7b2291e5b200ac8c7c3b925846040516109839190610d4c565b60405180910390a35b50505050565b5f73ffffffffffffffffffffffffffffffffffffffff168373ffffffffffffffffffffffffffffffffffffffff16036109e2578060025f8282546109d69190610fc7565b92505081905550610ab0565b5f5f5f8573ffffffffffffffffffffffffffffffffffffffff1673ffffffffffffffffffffffffffffffffffffffff1681526020019081526020015f2054905081811015610a6b578381836040517fe450d38c000000000000000000000000000000000000000000000000000000008152600401610a6293929190610f65565b60405180910390fd5b8181035f5f8673ffffffffffffffffffffffffffffffffffffffff1673ffffffffffffffffffffffffffffffffffffffff1681526020019081526020015f2081905550505b5f73ffffffffffffffffffffffffffffffffffffffff168273ffffffffffffffffffffffffffffffffffffffff1603610af7578060025f8282540392505081905550610b41565b805f5f8473ffffffffffffffffffffffffffffffffffffffff1673ffffffffffffffffffffffffffffffffffffffff1681526020019081526020015f205f82825401925050819055505b8173ffffffffffffffffffffffffffffffffffffffff168373ffffffffffffffffffffffffffffffffffffffff167fddf252ad1be2c89b69c2b068fc378daa952ba7f163c4a11628f55a4df523b3ef83604051610b9e9190610d4c565b60405180910390a3505050565b5f81519050919050565b5f82825260208201905092915050565b8281835e5f83830152505050565b5f601f19601f8301169050919050565b5f610bed82610bab565b610bf78185610bb5565b9350610c07818560208601610bc5565b610c1081610bd3565b840191505092915050565b5f6020820190508181035f830152610c338184610be3565b905092915050565b5f5ffd5b5f73ffffffffffffffffffffffffffffffffffffffff82169050919050565b5f610c6882610c3f565b9050919050565b610c7881610c5e565b8114610c82575f5ffd5b50565b5f81359050610c9381610c6f565b92915050565b5f819050919050565b610cab81610c99565b8114610cb5575f5ffd5b50565b5f81359050610cc681610ca2565b92915050565b5f5f60408385031215610ce257610ce1610c3b565b5b5f610cef85828601610c85565b9250506020610d0085828601610cb8565b9150509250929050565b5f8115159050919050565b610d1e81610d0a565b82525050565b5f602082019050610d375f830184610d15565b92915050565b610d4681610c99565b82525050565b5f602082019050610d5f5f830184610d3d565b92915050565b5f5f5f60608486031215610d7c57610d7b610c3b565b5b5f610d8986828701610c85565b9350506020610d9a86828701610c85565b9250506040610dab86828701610cb8565b9150509250925092565b5f60ff82169050919050565b610dca81610db5565b82525050565b5f602082019050610de35f830184610dc1565b92915050565b5f60208284031215610dfe57610dfd610c3b565b5b5f610e0b84828501610c85565b91505092915050565b610e1d81610c5e565b82525050565b5f602082019050610e365f830184610e14565b92915050565b5f5f60408385031215610e5257610e51610c3b565b5b5f610e5f85828601610c85565b9250506020610e7085828601610c85565b9150509250929050565b7f4e487b71000000000000000000000000000000000000000000000000000000005f52602260045260245ffd5b5f6002820490506001821680610ebe57607f821691505b602082108103610ed157610ed0610e7a565b5b50919050565b7f6f6e6c79206f776e65722063616e2063616c6c20746869732066756e6374696f5f8201527f6e00000000000000000000000000000000000000000000000000000000000000602082015250565b5f610f31602183610bb5565b9150610f3c82610ed7565b604082019050919050565b5f6020820190508181035f830152610f5e81610f25565b9050919050565b5f606082019050610f785f830186610e14565b610f856020830185610d3d565b610f926040830184610d3d565b949350505050565b7f4e487b71000000000000000000000000000000000000000000000000000000005f52601160045260245ffd5b5f610fd182610c99565b9150610fdc83610c99565b9250828201905080821115610ff457610ff3610f9a565b5b9291505056fea2646970667358221220e8be6561edd8efe1887dc69ee8c7943e9f2c21d391926d41273c80e7e4a885e764736f6c634300081c0033","linkReferences":{}},"methodIdentifiers":{"allowance(address,address)":"dd62ed3e","approve(address,uint256)":"095ea7b3","balanceOf(address)":"70a08231","decimals()":"313ce567","initialSupply()":"378dc3dc","mint(address,uint256)":"40c10f19","name()":"06fdde03","owner()":"8da5cb5b","symbol()":"95d89b41","totalSupply()":"18160ddd","transfer(address,uint256)":"a9059cbb","transferFrom(address,address,uint256)":"23b872dd"},"id":29}