{"abi":[{"type":"constructor","inputs":[{"name":"name","type":"string","internalType":"string"},{"name":"symbol","type":"string","internalType":"string"},{"name":"initialAccount","type":"address","internalType":"address"},{"name":"initialBalance","type":"uint256","internalType":"uint256"}],"stateMutability":"payable"},{"type":"function","name":"allowance","inputs":[{"name":"owner","type":"address","internalType":"address"},{"name":"spender","type":"address","internalType":"address"}],"outputs":[{"name":"","type":"uint256","internalType":"uint256"}],"stateMutability":"view"},{"type":"function","name":"approve","inputs":[{"name":"spender","type":"address","internalType":"address"},{"name":"value","type":"uint256","internalType":"uint256"}],"outputs":[{"name":"","type":"bool","internalType":"bool"}],"stateMutability":"nonpayable"},{"type":"function","name":"approveInternal","inputs":[{"name":"owner","type":"address","internalType":"address"},{"name":"spender","type":"address","internalType":"address"},{"name":"value","type":"uint256","internalType":"uint256"}],"outputs":[],"stateMutability":"nonpayable"},{"type":"function","name":"balanceOf","inputs":[{"name":"account","type":"address","internalType":"address"}],"outputs":[{"name":"","type":"uint256","internalType":"uint256"}],"stateMutability":"view"},{"type":"function","name":"burn","inputs":[{"name":"account","type":"address","internalType":"address"},{"name":"amount","type":"uint256","internalType":"uint256"}],"outputs":[],"stateMutability":"nonpayable"},{"type":"function","name":"decimals","inputs":[],"outputs":[{"name":"","type":"uint8","internalType":"uint8"}],"stateMutability":"view"},{"type":"function","name":"mint","inputs":[{"name":"account","type":"address","internalType":"address"},{"name":"amount","type":"uint256","internalType":"uint256"}],"outputs":[],"stateMutability":"nonpayable"},{"type":"function","name":"name","inputs":[],"outputs":[{"name":"","type":"string","internalType":"string"}],"stateMutability":"view"},{"type":"function","name":"symbol","inputs":[],"outputs":[{"name":"","type":"string","internalType":"string"}],"stateMutability":"view"},{"type":"function","name":"totalSupply","inputs":[],"outputs":[{"name":"","type":"uint256","internalType":"uint256"}],"stateMutability":"view"},{"type":"function","name":"transfer","inputs":[{"name":"to","type":"address","internalType":"address"},{"name":"value","type":"uint256","internalType":"uint256"}],"outputs":[{"name":"","type":"bool","internalType":"bool"}],"stateMutability":"nonpayable"},{"type":"function","name":"transferFrom","inputs":[{"name":"from","type":"address","internalType":"address"},{"name":"to","type":"address","internalType":"address"},{"name":"value","type":"uint256","internalType":"uint256"}],"outputs":[{"name":"","type":"bool","internalType":"bool"}],"stateMutability":"nonpayable"},{"type":"function","name":"transferInternal","inputs":[{"name":"from","type":"address","internalType":"address"},{"name":"to","type":"address","internalType":"address"},{"name":"value","type":"uint256","internalType":"uint256"}],"outputs":[],"stateMutability":"nonpayable"},{"type":"event","name":"Approval","inputs":[{"name":"owner","type":"address","indexed":true,"internalType":"address"},{"name":"spender","type":"address","indexed":true,"internalType":"address"},{"name":"value","type":"uint256","indexed":false,"internalType":"uint256"}],"anonymous":false},{"type":"event","name":"Transfer","inputs":[{"name":"from","type":"address","indexed":true,"internalType":"address"},{"name":"to","type":"address","indexed":true,"internalType":"address"},{"name":"value","type":"uint256","indexed":false,"internalType":"uint256"}],"anonymous":false},{"type":"error","name":"ERC20InsufficientAllowance","inputs":[{"name":"spender","type":"address","internalType":"address"},{"name":"allowance","type":"uint256","internalType":"uint256"},{"name":"needed","type":"uint256","internalType":"uint256"}]},{"type":"error","name":"ERC20InsufficientBalance","inputs":[{"name":"sender","type":"address","internalType":"address"},{"name":"balance","type":"uint256","internalType":"uint256"},{"name":"needed","type":"uint256","internalType":"uint256"}]},{"type":"error","name":"ERC20InvalidApprover","inputs":[{"name":"approver","type":"address","internalType":"address"}]},{"type":"error","name":"ERC20InvalidReceiver","inputs":[{"name":"receiver","type":"address","internalType":"address"}]},{"type":"error","name":"ERC20InvalidSender","inputs":[{"name":"sender","type":"address","internalType":"address"}]},{"type":"error","name":"ERC20InvalidSpender","inputs":[{"name":"spender","type":"address","internalType":"address"}]}],"bytecode":{"object":"0x6080604052604051611906380380611906833981810160405281019061002591906104da565b83838160039081610036919061077d565b508060049081610046919061077d565b505050610059828261006260201b60201c565b50505050610931565b5f73ffffffffffffffffffffffffffffffffffffffff168273ffffffffffffffffffffffffffffffffffffffff16036100d2575f6040517fec442f050000000000000000000000000000000000000000000000000000000081526004016100c9919061085b565b60405180910390fd5b6100e35f83836100e760201b60201c565b5050565b5f73ffffffffffffffffffffffffffffffffffffffff168373ffffffffffffffffffffffffffffffffffffffff1603610137578060025f82825461012b91906108a1565b92505081905550610205565b5f5f5f8573ffffffffffffffffffffffffffffffffffffffff1673ffffffffffffffffffffffffffffffffffffffff1681526020019081526020015f20549050818110156101c0578381836040517fe450d38c0000000000000000000000000000000000000000000000000000000081526004016101b7939291906108e3565b60405180910390fd5b8181035f5f8673ffffffffffffffffffffffffffffffffffffffff1673ffffffffffffffffffffffffffffffffffffffff1681526020019081526020015f2081905550505b5f73ffffffffffffffffffffffffffffffffffffffff168273ffffffffffffffffffffffffffffffffffffffff160361024c578060025f8282540392505081905550610296565b805f5f8473ffffffffffffffffffffffffffffffffffffffff1673ffffffffffffffffffffffffffffffffffffffff1681526020019081526020015f205f82825401925050819055505b8173ffffffffffffffffffffffffffffffffffffffff168373ffffffffffffffffffffffffffffffffffffffff167fddf252ad1be2c89b69c2b068fc378daa952ba7f163c4a11628f55a4df523b3ef836040516102f39190610918565b60405180910390a3505050565b5f604051905090565b5f5ffd5b5f5ffd5b5f5ffd5b5f5ffd5b5f601f19601f8301169050919050565b7f4e487b71000000000000000000000000000000000000000000000000000000005f52604160045260245ffd5b61035f82610319565b810181811067ffffffffffffffff8211171561037e5761037d610329565b5b80604052505050565b5f610390610300565b905061039c8282610356565b919050565b5f67ffffffffffffffff8211156103bb576103ba610329565b5b6103c482610319565b9050602081019050919050565b8281835e5f83830152505050565b5f6103f16103ec846103a1565b610387565b90508281526020810184848401111561040d5761040c610315565b5b6104188482856103d1565b509392505050565b5f82601f83011261043457610433610311565b5b81516104448482602086016103df565b91505092915050565b5f73ffffffffffffffffffffffffffffffffffffffff82169050919050565b5f6104768261044d565b9050919050565b6104868161046c565b8114610490575f5ffd5b50565b5f815190506104a18161047d565b92915050565b5f819050919050565b6104b9816104a7565b81146104c3575f5ffd5b50565b5f815190506104d4816104b0565b92915050565b5f5f5f5f608085870312156104f2576104f1610309565b5b5f85015167ffffffffffffffff81111561050f5761050e61030d565b5b61051b87828801610420565b945050602085015167ffffffffffffffff81111561053c5761053b61030d565b5b61054887828801610420565b935050604061055987828801610493565b925050606061056a878288016104c6565b91505092959194509250565b5f81519050919050565b7f4e487b71000000000000000000000000000000000000000000000000000000005f52602260045260245ffd5b5f60028204905060018216806105c457607f821691505b6020821081036105d7576105d6610580565b5b50919050565b5f819050815f5260205f209050919050565b5f6020601f8301049050919050565b5f82821b905092915050565b5f600883026106397fffffffffffffffffffffffffffffffffffffffffffffffffffffffffffffffff826105fe565b61064386836105fe565b95508019841693508086168417925050509392505050565b5f819050919050565b5f61067e610679610674846104a7565b61065b565b6104a7565b9050919050565b5f819050919050565b61069783610664565b6106ab6106a382610685565b84845461060a565b825550505050565b5f5f905090565b6106c26106b3565b6106cd81848461068e565b505050565b5b818110156106f0576106e55f826106ba565b6001810190506106d3565b5050565b601f82111561073557610706816105dd565b61070f846105ef565b8101602085101561071e578190505b61073261072a856105ef565b8301826106d2565b50505b505050565b5f82821c905092915050565b5f6107555f198460080261073a565b1980831691505092915050565b5f61076d8383610746565b9150826002028217905092915050565b61078682610576565b67ffffffffffffffff81111561079f5761079e610329565b5b6107a982546105ad565b6107b48282856106f4565b5f60209050601f8311600181146107e5575f84156107d3578287015190505b6107dd8582610762565b865550610844565b601f1984166107f3866105dd565b5f5b8281101561081a578489015182556001820191506020850194506020810190506107f5565b868310156108375784890151610833601f891682610746565b8355505b6001600288020188555050505b505050505050565b6108558161046c565b82525050565b5f60208201905061086e5f83018461084c565b92915050565b7f4e487b71000000000000000000000000000000000000000000000000000000005f52601160045260245ffd5b5f6108ab826104a7565b91506108b6836104a7565b92508282019050808211156108ce576108cd610874565b5b92915050565b6108dd816104a7565b82525050565b5f6060820190506108f65f83018661084c565b61090360208301856108d4565b61091060408301846108d4565b949350505050565b5f60208201905061092b5f8301846108d4565b92915050565b610fc88061093e5f395ff3fe608060405234801561000f575f5ffd5b50600436106100cd575f3560e01c806340c10f191161008a57806395d89b411161006457806395d89b411461020f5780639dc29fac1461022d578063a9059cbb14610249578063dd62ed3e14610279576100cd565b806340c10f19146101a757806356189cb4146101c357806370a08231146101df576100cd565b806306fdde03146100d1578063095ea7b3146100ef57806318160ddd1461011f578063222f5be01461013d57806323b872dd14610159578063313ce56714610189575b5f5ffd5b6100d96102a9565b6040516100e69190610c41565b60405180910390f35b61010960048036038101906101049190610cf2565b610339565b6040516101169190610d4a565b60405180910390f35b61012761035b565b6040516101349190610d72565b60405180910390f35b61015760048036038101906101529190610d8b565b610364565b005b610173600480360381019061016e9190610d8b565b610374565b6040516101809190610d4a565b60405180910390f35b6101916103a2565b60405161019e9190610df6565b60405180910390f35b6101c160048036038101906101bc9190610cf2565b6103aa565b005b6101dd60048036038101906101d89190610d8b565b6103b8565b005b6101f960048036038101906101f49190610e0f565b6103c8565b6040516102069190610d72565b60405180910390f35b61021761040d565b6040516102249190610c41565b60405180910390f35b61024760048036038101906102429190610cf2565b61049d565b005b610263600480360381019061025e9190610cf2565b6104ab565b6040516102709190610d4a565b60405180910390f35b610293600480360381019061028e9190610e3a565b6104cd565b6040516102a09190610d72565b60405180910390f35b6060600380546102b890610ea5565b80601f01602080910402602001604051908101604052809291908181526020018280546102e490610ea5565b801561032f5780601f106103065761010080835404028352916020019161032f565b820191905f5260205f20905b81548152906001019060200180831161031257829003601f168201915b5050505050905090565b5f5f61034361054f565b9050610350818585610556565b600191505092915050565b5f600254905090565b61036f838383610568565b505050565b5f5f61037e61054f565b905061038b858285610658565b610396858585610568565b60019150509392505050565b5f6012905090565b6103b482826106eb565b5050565b6103c3838383610556565b505050565b5f5f5f8373ffffffffffffffffffffffffffffffffffffffff1673ffffffffffffffffffffffffffffffffffffffff1681526020019081526020015f20549050919050565b60606004805461041c90610ea5565b80601f016020809104026020016040519081016040528092919081815260200182805461044890610ea5565b80156104935780601f1061046a57610100808354040283529160200191610493565b820191905f5260205f20905b81548152906001019060200180831161047657829003601f168201915b5050505050905090565b6104a7828261076a565b5050565b5f5f6104b561054f565b90506104c2818585610568565b600191505092915050565b5f60015f8473ffffffffffffffffffffffffffffffffffffffff1673ffffffffffffffffffffffffffffffffffffffff1681526020019081526020015f205f8373ffffffffffffffffffffffffffffffffffffffff1673ffffffffffffffffffffffffffffffffffffffff1681526020019081526020015f2054905092915050565b5f33905090565b61056383838360016107e9565b505050565b5f73ffffffffffffffffffffffffffffffffffffffff168373ffffffffffffffffffffffffffffffffffffffff16036105d8575f6040517f96c6fd1e0000000000000000000000000000000000000000000000000000000081526004016105cf9190610ee4565b60405180910390fd5b5f73ffffffffffffffffffffffffffffffffffffffff168273ffffffffffffffffffffffffffffffffffffffff1603610648575f6040517fec442f0500000000000000000000000000000000000000000000000000000000815260040161063f9190610ee4565b60405180910390fd5b6106538383836109b8565b505050565b5f61066384846104cd565b90507fffffffffffffffffffffffffffffffffffffffffffffffffffffffffffffffff8110156106e557818110156106d6578281836040517ffb8f41b20000000000000000000000000000000000000000000000000000000081526004016106cd93929190610efd565b60405180910390fd5b6106e484848484035f6107e9565b5b50505050565b5f73ffffffffffffffffffffffffffffffffffffffff168273ffffffffffffffffffffffffffffffffffffffff160361075b575f6040517fec442f050000000000000000000000000000000000000000000000000000000081526004016107529190610ee4565b60405180910390fd5b6107665f83836109b8565b5050565b5f73ffffffffffffffffffffffffffffffffffffffff168273ffffffffffffffffffffffffffffffffffffffff16036107da575f6040517f96c6fd1e0000000000000000000000000000000000000000000000000000000081526004016107d19190610ee4565b60405180910390fd5b6107e5825f836109b8565b5050565b5f73ffffffffffffffffffffffffffffffffffffffff168473ffffffffffffffffffffffffffffffffffffffff1603610859575f6040517fe602df050000000000000000000000000000000000000000000000000000000081526004016108509190610ee4565b60405180910390fd5b5f73ffffffffffffffffffffffffffffffffffffffff168373ffffffffffffffffffffffffffffffffffffffff16036108c9575f6040517f94280d620000000000000000000000000000000000000000000000000000000081526004016108c09190610ee4565b60405180910390fd5b8160015f8673ffffffffffffffffffffffffffffffffffffffff1673ffffffffffffffffffffffffffffffffffffffff1681526020019081526020015f205f8573ffffffffffffffffffffffffffffffffffffffff1673ffffffffffffffffffffffffffffffffffffffff1681526020019081526020015f208190555080156109b2578273ffffffffffffffffffffffffffffffffffffffff168473ffffffffffffffffffffffffffffffffffffffff167f8c5be1e5ebec7d5bd14f71427d1e84f3dd0314c0f7b2291e5b200ac8c7c3b925846040516109a99190610d72565b60405180910390a35b50505050565b5f73ffffffffffffffffffffffffffffffffffffffff168373ffffffffffffffffffffffffffffffffffffffff1603610a08578060025f8282546109fc9190610f5f565b92505081905550610ad6565b5f5f5f8573ffffffffffffffffffffffffffffffffffffffff1673ffffffffffffffffffffffffffffffffffffffff1681526020019081526020015f2054905081811015610a91578381836040517fe450d38c000000000000000000000000000000000000000000000000000000008152600401610a8893929190610efd565b60405180910390fd5b8181035f5f8673ffffffffffffffffffffffffffffffffffffffff1673ffffffffffffffffffffffffffffffffffffffff1681526020019081526020015f2081905550505b5f73ffffffffffffffffffffffffffffffffffffffff168273ffffffffffffffffffffffffffffffffffffffff1603610b1d578060025f8282540392505081905550610b67565b805f5f8473ffffffffffffffffffffffffffffffffffffffff1673ffffffffffffffffffffffffffffffffffffffff1681526020019081526020015f205f82825401925050819055505b8173ffffffffffffffffffffffffffffffffffffffff168373ffffffffffffffffffffffffffffffffffffffff167fddf252ad1be2c89b69c2b068fc378daa952ba7f163c4a11628f55a4df523b3ef83604051610bc49190610d72565b60405180910390a3505050565b5f81519050919050565b5f82825260208201905092915050565b8281835e5f83830152505050565b5f601f19601f8301169050919050565b5f610c1382610bd1565b610c1d8185610bdb565b9350610c2d818560208601610beb565b610c3681610bf9565b840191505092915050565b5f6020820190508181035f830152610c598184610c09565b905092915050565b5f5ffd5b5f73ffffffffffffffffffffffffffffffffffffffff82169050919050565b5f610c8e82610c65565b9050919050565b610c9e81610c84565b8114610ca8575f5ffd5b50565b5f81359050610cb981610c95565b92915050565b5f819050919050565b610cd181610cbf565b8114610cdb575f5ffd5b50565b5f81359050610cec81610cc8565b92915050565b5f5f60408385031215610d0857610d07610c61565b5b5f610d1585828601610cab565b9250506020610d2685828601610cde565b9150509250929050565b5f8115159050919050565b610d4481610d30565b82525050565b5f602082019050610d5d5f830184610d3b565b92915050565b610d6c81610cbf565b82525050565b5f602082019050610d855f830184610d63565b92915050565b5f5f5f60608486031215610da257610da1610c61565b5b5f610daf86828701610cab565b9350506020610dc086828701610cab565b9250506040610dd186828701610cde565b9150509250925092565b5f60ff82169050919050565b610df081610ddb565b82525050565b5f602082019050610e095f830184610de7565b92915050565b5f60208284031215610e2457610e23610c61565b5b5f610e3184828501610cab565b91505092915050565b5f5f60408385031215610e5057610e4f610c61565b5b5f610e5d85828601610cab565b9250506020610e6e85828601610cab565b9150509250929050565b7f4e487b71000000000000000000000000000000000000000000000000000000005f52602260045260245ffd5b5f6002820490506001821680610ebc57607f821691505b602082108103610ecf57610ece610e78565b5b50919050565b610ede81610c84565b82525050565b5f602082019050610ef75f830184610ed5565b92915050565b5f606082019050610f105f830186610ed5565b610f1d6020830185610d63565b610f2a6040830184610d63565b949350505050565b7f4e487b71000000000000000000000000000000000000000000000000000000005f52601160045260245ffd5b5f610f6982610cbf565b9150610f7483610cbf565b9250828201905080821115610f8c57610f8b610f32565b5b9291505056fea2646970667358221220e85df6d6a52ab18fa6e77f48ef764a732a02a07f6625f41c581bd7cdfc72695564736f6c634300081c0033","linkReferences":{}},"methodIdentifiers":{"allowance(address,address)":"dd62ed3e","approve(address,uint256)":"095ea7b3","approveInternal(address,address,uint256)":"56189cb4","balanceOf(address)":"70a08231","burn(address,uint256)":"9dc29fac","decimals()":"313ce567","mint(address,uint256)":"40c10f19","name()":"06fdde03","symbol()":"95d89b41","totalSupply()":"18160ddd","transfer(address,uint256)":"a9059cbb","transferFrom(address,address,uint256)":"23b872dd","transferInternal(address,address,uint256)":"222f5be0"},"id":30}